{
  "contractName": "MethaCrowdsale",
  "abi": [
    {
      "constant": true,
      "inputs": [
        {
          "name": "",
          "type": "uint256"
        },
        {
          "name": "",
          "type": "uint256"
        }
      ],
      "name": "contributors_data_per_period",
      "outputs": [
        {
          "name": "user_address",
          "type": "address"
        },
        {
          "name": "token_balance",
          "type": "uint256"
        },
        {
          "name": "wei_contribution",
          "type": "uint256"
        },
        {
          "name": "claimed",
          "type": "bool"
        }
      ],
      "payable": false,
      "stateMutability": "view",
      "type": "function"
    },
    {
      "constant": true,
      "inputs": [
        {
          "name": "",
          "type": "address"
        }
      ],
      "name": "wallets_authorized_percent",
      "outputs": [
        {
          "name": "",
          "type": "uint256"
        }
      ],
      "payable": false,
      "stateMutability": "view",
      "type": "function"
    },
    {
      "constant": true,
      "inputs": [
        {
          "name": "",
          "type": "uint256"
        }
      ],
      "name": "wallets_authorized_addresses",
      "outputs": [
        {
          "name": "",
          "type": "address"
        }
      ],
      "payable": false,
      "stateMutability": "view",
      "type": "function"
    },
    {
      "constant": true,
      "inputs": [
        {
          "name": "",
          "type": "address"
        }
      ],
      "name": "wallets_authorized_to_claim",
      "outputs": [
        {
          "name": "",
          "type": "bool"
        }
      ],
      "payable": false,
      "stateMutability": "view",
      "type": "function"
    },
    {
      "constant": true,
      "inputs": [
        {
          "name": "",
          "type": "address"
        }
      ],
      "name": "wallets_authorized_total",
      "outputs": [
        {
          "name": "",
          "type": "uint256"
        }
      ],
      "payable": false,
      "stateMutability": "view",
      "type": "function"
    },
    {
      "constant": false,
      "inputs": [],
      "name": "renounceOwnership",
      "outputs": [],
      "payable": false,
      "stateMutability": "nonpayable",
      "type": "function"
    },
    {
      "constant": true,
      "inputs": [],
      "name": "owner",
      "outputs": [
        {
          "name": "",
          "type": "address"
        }
      ],
      "payable": false,
      "stateMutability": "view",
      "type": "function"
    },
    {
      "constant": true,
      "inputs": [],
      "name": "isOwner",
      "outputs": [
        {
          "name": "",
          "type": "bool"
        }
      ],
      "payable": false,
      "stateMutability": "view",
      "type": "function"
    },
    {
      "constant": true,
      "inputs": [
        {
          "name": "",
          "type": "address"
        }
      ],
      "name": "wallets_authorized_total_claimed",
      "outputs": [
        {
          "name": "",
          "type": "uint256"
        }
      ],
      "payable": false,
      "stateMutability": "view",
      "type": "function"
    },
    {
      "constant": false,
      "inputs": [
        {
          "name": "newOwner",
          "type": "address"
        }
      ],
      "name": "transferOwnership",
      "outputs": [],
      "payable": false,
      "stateMutability": "nonpayable",
      "type": "function"
    },
    {
      "inputs": [
        {
          "name": "token",
          "type": "address"
        },
        {
          "name": "wallet",
          "type": "address"
        },
        {
          "name": "start_time_of_first_period",
          "type": "uint256"
        },
        {
          "name": "tokens_created_per_period",
          "type": "uint256"
        },
        {
          "name": "init_period_duration",
          "type": "uint256"
        }
      ],
      "payable": false,
      "stateMutability": "nonpayable",
      "type": "constructor"
    },
    {
      "payable": true,
      "stateMutability": "payable",
      "type": "fallback"
    },
    {
      "anonymous": false,
      "inputs": [
        {
          "indexed": true,
          "name": "previousOwner",
          "type": "address"
        },
        {
          "indexed": true,
          "name": "newOwner",
          "type": "address"
        }
      ],
      "name": "OwnershipTransferred",
      "type": "event"
    },
    {
      "constant": true,
      "inputs": [
        {
          "name": "period_id",
          "type": "uint256"
        }
      ],
      "name": "wei_raised_per_period",
      "outputs": [
        {
          "name": "",
          "type": "uint256"
        }
      ],
      "payable": false,
      "stateMutability": "view",
      "type": "function"
    },
    {
      "constant": true,
      "inputs": [],
      "name": "current_period",
      "outputs": [
        {
          "name": "",
          "type": "uint256"
        }
      ],
      "payable": false,
      "stateMutability": "view",
      "type": "function"
    },
    {
      "constant": true,
      "inputs": [],
      "name": "wei_raised",
      "outputs": [
        {
          "name": "",
          "type": "uint256"
        }
      ],
      "payable": false,
      "stateMutability": "view",
      "type": "function"
    },
    {
      "constant": true,
      "inputs": [],
      "name": "start_time_of_next_period",
      "outputs": [
        {
          "name": "",
          "type": "uint256"
        }
      ],
      "payable": false,
      "stateMutability": "view",
      "type": "function"
    },
    {
      "constant": true,
      "inputs": [
        {
          "name": "period_id",
          "type": "uint256"
        }
      ],
      "name": "contributors_length_per_period",
      "outputs": [
        {
          "name": "",
          "type": "uint256"
        }
      ],
      "payable": false,
      "stateMutability": "view",
      "type": "function"
    },
    {
      "constant": true,
      "inputs": [
        {
          "name": "period_id",
          "type": "uint256"
        },
        {
          "name": "user_address",
          "type": "address"
        }
      ],
      "name": "if_address_has_contributed_in",
      "outputs": [
        {
          "name": "",
          "type": "bool"
        }
      ],
      "payable": false,
      "stateMutability": "view",
      "type": "function"
    },
    {
      "constant": false,
      "inputs": [
        {
          "name": "new_period_duration",
          "type": "uint256"
        }
      ],
      "name": "set_new_period_duration",
      "outputs": [],
      "payable": false,
      "stateMutability": "nonpayable",
      "type": "function"
    },
    {
      "constant": false,
      "inputs": [
        {
          "name": "_address",
          "type": "address"
        },
        {
          "name": "_percent",
          "type": "uint256"
        },
        {
          "name": "_total",
          "type": "uint256"
        }
      ],
      "name": "add_authorized_address",
      "outputs": [],
      "payable": false,
      "stateMutability": "nonpayable",
      "type": "function"
    },
    {
      "constant": false,
      "inputs": [
        {
          "name": "_address",
          "type": "address"
        },
        {
          "name": "_percent",
          "type": "uint256"
        },
        {
          "name": "_total",
          "type": "uint256"
        },
        {
          "name": "_status",
          "type": "bool"
        }
      ],
      "name": "update_authorized_address",
      "outputs": [],
      "payable": false,
      "stateMutability": "nonpayable",
      "type": "function"
    },
    {
      "constant": true,
      "inputs": [],
      "name": "get_wallets_authorized_count",
      "outputs": [
        {
          "name": "",
          "type": "uint256"
        }
      ],
      "payable": false,
      "stateMutability": "view",
      "type": "function"
    },
    {
      "constant": false,
      "inputs": [
        {
          "name": "_address",
          "type": "address"
        },
        {
          "name": "_index",
          "type": "uint256"
        }
      ],
      "name": "delete_authorized_address",
      "outputs": [],
      "payable": false,
      "stateMutability": "nonpayable",
      "type": "function"
    },
    {
      "constant": true,
      "inputs": [
        {
          "name": "period_id",
          "type": "uint256"
        },
        {
          "name": "user_address",
          "type": "address"
        }
      ],
      "name": "get_contributor_data_per_period",
      "outputs": [
        {
          "name": "",
          "type": "address"
        },
        {
          "name": "",
          "type": "uint256"
        },
        {
          "name": "",
          "type": "uint256"
        },
        {
          "name": "",
          "type": "bool"
        }
      ],
      "payable": false,
      "stateMutability": "view",
      "type": "function"
    },
    {
      "constant": false,
      "inputs": [],
      "name": "buy",
      "outputs": [],
      "payable": true,
      "stateMutability": "payable",
      "type": "function"
    },
    {
      "constant": false,
      "inputs": [
        {
          "name": "period_id",
          "type": "uint256"
        }
      ],
      "name": "claim_period",
      "outputs": [],
      "payable": false,
      "stateMutability": "nonpayable",
      "type": "function"
    },
    {
      "constant": false,
      "inputs": [],
      "name": "claim_all",
      "outputs": [],
      "payable": false,
      "stateMutability": "nonpayable",
      "type": "function"
    },
    {
      "constant": false,
      "inputs": [
        {
          "name": "from",
          "type": "uint256"
        },
        {
          "name": "to",
          "type": "uint256"
        }
      ],
      "name": "claim_range",
      "outputs": [],
      "payable": false,
      "stateMutability": "nonpayable",
      "type": "function"
    },
    {
      "constant": false,
      "inputs": [
        {
          "name": "amount",
          "type": "uint256"
        }
      ],
      "name": "claim_authorized_address",
      "outputs": [],
      "payable": false,
      "stateMutability": "nonpayable",
      "type": "function"
    },
    {
      "constant": false,
      "inputs": [
        {
          "name": "amount",
          "type": "uint256"
        }
      ],
      "name": "claim_eth_authorized_address",
      "outputs": [],
      "payable": false,
      "stateMutability": "nonpayable",
      "type": "function"
    }
  ],
  "bytecode": "0x60806040523480156200001157600080fd5b5060405160a0806200330d833981018060405260a08110156200003357600080fd5b8101908080519060200190929190805190602001909291908051906020019092919080519060200190929190805190602001909291905050506200007c6200025960201b60201c565b6000806101000a81548173ffffffffffffffffffffffffffffffffffffffff021916908373ffffffffffffffffffffffffffffffffffffffff1602179055506000809054906101000a900473ffffffffffffffffffffffffffffffffffffffff1673ffffffffffffffffffffffffffffffffffffffff16600073ffffffffffffffffffffffffffffffffffffffff167f8be0079c531659141344cd1fd0a4f28419497f9722a3daafe3b4186f6b6457e060405160405180910390a384600160006101000a81548173ffffffffffffffffffffffffffffffffffffffff021916908373ffffffffffffffffffffffffffffffffffffffff16021790555083600260006101000a81548173ffffffffffffffffffffffffffffffffffffffff021916908373ffffffffffffffffffffffffffffffffffffffff160217905550826003819055508160058190555080600881905550620001e881846200026160201b620024ae1790919060201c565b60048190555060006007819055506001600c60003373ffffffffffffffffffffffffffffffffffffffff1673ffffffffffffffffffffffffffffffffffffffff16815260200190815260200160002060006101000a81548160ff0219169083151502179055505050505050620002ea565b600033905090565b600080828401905083811015620002e0576040517f08c379a000000000000000000000000000000000000000000000000000000000815260040180806020018281038252601b8152602001807f536166654d6174683a206164646974696f6e206f766572666c6f77000000000081525060200191505060405180910390fd5b8091505092915050565b61301380620002fa6000396000f3fe6080604052600436106101b75760003560e01c80635f000e65116100ec5780638f32d59b1161008a578063d7b891f011610064578063d7b891f014610934578063e4258a6f14610979578063e9fadf51146109b4578063f2fde38b14610a03576101b7565b80638f32d59b14610896578063a6f2ae3a146108c5578063c27dfe3c146108cf576101b7565b8063715018a6116100c6578063715018a6146107685780637a7a01501461077f578063892e02db146107da5780638da5cb5b1461083f576101b7565b80635f000e65146106915780636b727596146106cc5780636d04cbe1146106f7576101b7565b80633207ba2011610159578063431dc4b611610133578063431dc4b61461058d5780634879919b146105b8578063516a3c9f14610607578063520669051461067a576101b7565b80633207ba20146104c257806334200aca146104fd5780633aedf90a14610562576101b7565b8063191861f711610195578063191861f71461033f5780631d0f9f321461036a5780631e4b507c146103a557806326aa9bb014610459576101b7565b80630588b5d3146101c1578063188104451461025f578063190e67a7146102c4575b6101bf610a54565b005b3480156101cd57600080fd5b50610204600480360360408110156101e457600080fd5b810190808035906020019092919080359060200190929190505050610d25565b604051808573ffffffffffffffffffffffffffffffffffffffff1673ffffffffffffffffffffffffffffffffffffffff1681526020018481526020018381526020018215151515815260200194505050505060405180910390f35b34801561026b57600080fd5b506102ae6004803603602081101561028257600080fd5b81019080803573ffffffffffffffffffffffffffffffffffffffff169060200190929190505050610d9c565b6040518082815260200191505060405180910390f35b3480156102d057600080fd5b506102fd600480360360208110156102e757600080fd5b8101908080359060200190929190505050610db4565b604051808273ffffffffffffffffffffffffffffffffffffffff1673ffffffffffffffffffffffffffffffffffffffff16815260200191505060405180910390f35b34801561034b57600080fd5b50610354610df0565b6040518082815260200191505060405180910390f35b34801561037657600080fd5b506103a36004803603602081101561038d57600080fd5b8101908080359060200190929190505050610dfd565b005b3480156103b157600080fd5b506103fe600480360360408110156103c857600080fd5b8101908080359060200190929190803573ffffffffffffffffffffffffffffffffffffffff169060200190929190505050610fcb565b604051808573ffffffffffffffffffffffffffffffffffffffff1673ffffffffffffffffffffffffffffffffffffffff1681526020018481526020018381526020018215151515815260200194505050505060405180910390f35b34801561046557600080fd5b506104a86004803603602081101561047c57600080fd5b81019080803573ffffffffffffffffffffffffffffffffffffffff1690602001909291905050506111a5565b604051808215151515815260200191505060405180910390f35b3480156104ce57600080fd5b506104fb600480360360208110156104e557600080fd5b81019080803590602001909291905050506111c5565b005b34801561050957600080fd5b5061054c6004803603602081101561052057600080fd5b81019080803573ffffffffffffffffffffffffffffffffffffffff1690602001909291905050506113e9565b6040518082815260200191505060405180910390f35b34801561056e57600080fd5b50610577611401565b6040518082815260200191505060405180910390f35b34801561059957600080fd5b506105a261140b565b6040518082815260200191505060405180910390f35b3480156105c457600080fd5b506105f1600480360360208110156105db57600080fd5b8101908080359060200190929190505050611415565b6040518082815260200191505060405180910390f35b34801561061357600080fd5b506106606004803603604081101561062a57600080fd5b8101908080359060200190929190803573ffffffffffffffffffffffffffffffffffffffff16906020019092919050505061155e565b604051808215151515815260200191505060405180910390f35b34801561068657600080fd5b5061068f6116f4565b005b34801561069d57600080fd5b506106ca600480360360208110156106b457600080fd5b810190808035906020019092919050505061171d565b005b3480156106d857600080fd5b506106e1611979565b6040518082815260200191505060405180910390f35b34801561070357600080fd5b506107666004803603608081101561071a57600080fd5b81019080803573ffffffffffffffffffffffffffffffffffffffff1690602001909291908035906020019092919080359060200190929190803515159060200190929190505050611983565b005b34801561077457600080fd5b5061077d611b36565b005b34801561078b57600080fd5b506107d8600480360360408110156107a257600080fd5b81019080803573ffffffffffffffffffffffffffffffffffffffff16906020019092919080359060200190929190505050611c6f565b005b3480156107e657600080fd5b5061083d600480360360608110156107fd57600080fd5b81019080803573ffffffffffffffffffffffffffffffffffffffff1690602001909291908035906020019092919080359060200190929190505050611db9565b005b34801561084b57600080fd5b5061085461206e565b604051808273ffffffffffffffffffffffffffffffffffffffff1673ffffffffffffffffffffffffffffffffffffffff16815260200191505060405180910390f35b3480156108a257600080fd5b506108ab612097565b604051808215151515815260200191505060405180910390f35b6108cd610a54565b005b3480156108db57600080fd5b5061091e600480360360208110156108f257600080fd5b81019080803573ffffffffffffffffffffffffffffffffffffffff1690602001909291905050506120f5565b6040518082815260200191505060405180910390f35b34801561094057600080fd5b506109776004803603604081101561095757600080fd5b81019080803590602001909291908035906020019092919050505061210d565b005b34801561098557600080fd5b506109b26004803603602081101561099c57600080fd5b8101908080359060200190929190505050612135565b005b3480156109c057600080fd5b506109ed600480360360208110156109d757600080fd5b81019080803590602001909291905050506121c6565b6040518082815260200191505060405180910390f35b348015610a0f57600080fd5b50610a5260048036036020811015610a2657600080fd5b81019080803573ffffffffffffffffffffffffffffffffffffffff1690602001909291905050506121e6565b005b600354421015610a6357600080fd5b600073ffffffffffffffffffffffffffffffffffffffff163373ffffffffffffffffffffffffffffffffffffffff161415610a9d57600080fd5b662386f26fc10000341015610ab157600080fd5b6000429050610ac26007543361155e565b8015610acf575080600454115b15610ae657610ae1600754333461226c565b610d07565b610af26007543361155e565b158015610b00575080600454115b15610c035760096000600754815260200190815260200160002060405180608001604052803373ffffffffffffffffffffffffffffffffffffffff16815260200160008152602001348152602001600015158152509080600181540180825580915050906001820390600052602060002090600402016000909192909190915060008201518160000160006101000a81548173ffffffffffffffffffffffffffffffffffffffff021916908373ffffffffffffffffffffffffffffffffffffffff160217905550602082015181600101556040820151816002015560608201518160030160006101000a81548160ff021916908315150217905550505050610d06565b610c0c8161242a565b60096000600754815260200190815260200160002060405180608001604052803373ffffffffffffffffffffffffffffffffffffffff16815260200160008152602001348152602001600015158152509080600181540180825580915050906001820390600052602060002090600402016000909192909190915060008201518160000160006101000a81548173ffffffffffffffffffffffffffffffffffffffff021916908373ffffffffffffffffffffffffffffffffffffffff160217905550602082015181600101556040820151816002015560608201518160030160006101000a81548160ff0219169083151502179055505050505b5b610d1c346006546124ae90919063ffffffff16565b60068190555050565b60096020528160005260406000208181548110610d3e57fe5b9060005260206000209060040201600091509150508060000160009054906101000a900473ffffffffffffffffffffffffffffffffffffffff16908060010154908060020154908060030160009054906101000a900460ff16905084565b600d6020528060005260406000206000915090505481565b600b8181548110610dc157fe5b906000526020600020016000915054906101000a900473ffffffffffffffffffffffffffffffffffffffff1681565b6000600b80549050905090565b610e05612097565b610e77576040517f08c379a00000000000000000000000000000000000000000000000000000000081526004018080602001828103825260208152602001807f4f776e61626c653a2063616c6c6572206973206e6f7420746865206f776e657281525060200191505060405180910390fd5b600073ffffffffffffffffffffffffffffffffffffffff163373ffffffffffffffffffffffffffffffffffffffff161415610eb157600080fd5b80600a541015610ec057600080fd5b610ed581600a5461253690919063ffffffff16565b600a81905550600160009054906101000a900473ffffffffffffffffffffffffffffffffffffffff1673ffffffffffffffffffffffffffffffffffffffff166340c10f1933836040518363ffffffff1660e01b8152600401808373ffffffffffffffffffffffffffffffffffffffff1673ffffffffffffffffffffffffffffffffffffffff16815260200182815260200192505050602060405180830381600087803b158015610f8457600080fd5b505af1158015610f98573d6000803e3d6000fd5b505050506040513d6020811015610fae57600080fd5b8101908080519060200190929190505050610fc857600080fd5b50565b600080600080606060096000888152602001908152602001600020805480602002602001604051908101604052809291908181526020016000905b828210156110bd57838290600052602060002090600402016040518060800160405290816000820160009054906101000a900473ffffffffffffffffffffffffffffffffffffffff1673ffffffffffffffffffffffffffffffffffffffff1673ffffffffffffffffffffffffffffffffffffffff16815260200160018201548152602001600282015481526020016003820160009054906101000a900460ff16151515158152505081526020019060010190611006565b50505050905060008090505b8151811015611199578673ffffffffffffffffffffffffffffffffffffffff168282815181106110f557fe5b60200260200101516000015173ffffffffffffffffffffffffffffffffffffffff16141561118c5781818151811061112957fe5b60200260200101516000015182828151811061114157fe5b60200260200101516020015183838151811061115957fe5b60200260200101516040015184848151811061117157fe5b6020026020010151606001519550955095509550505061119c565b80806001019150506110c9565b50505b92959194509250565b600c6020528060005260406000206000915054906101000a900460ff1681565b600073ffffffffffffffffffffffffffffffffffffffff163373ffffffffffffffffffffffffffffffffffffffff1614156111ff57600080fd5b6000429050600454811115611218576112178161242a565b5b600754821061122657600080fd5b611230823361155e565b801561124357506112418233612580565b155b156113e557600061125383611415565b90506000611274670de0b6b3a764000060055461271390919063ffffffff16565b9050600061128c600a8361279990919063ffffffff16565b90506112a1818361253690919063ffffffff16565b915060006112af86336127e3565b905060006112d8856112ca868561271390919063ffffffff16565b61279990919063ffffffff16565b9050600160009054906101000a900473ffffffffffffffffffffffffffffffffffffffff1673ffffffffffffffffffffffffffffffffffffffff166340c10f1933836040518363ffffffff1660e01b8152600401808373ffffffffffffffffffffffffffffffffffffffff1673ffffffffffffffffffffffffffffffffffffffff16815260200182815260200192505050602060405180830381600087803b15801561138357600080fd5b505af1158015611397573d6000803e3d6000fd5b505050506040513d60208110156113ad57600080fd5b81019080805190602001909291905050506113c757600080fd5b6113d38733600a612968565b6113df87336001612b26565b50505050505b5050565b600e6020528060005260406000206000915090505481565b6000600654905090565b6000600754905090565b6000606060096000848152602001908152602001600020805480602002602001604051908101604052809291908181526020016000905b8282101561150357838290600052602060002090600402016040518060800160405290816000820160009054906101000a900473ffffffffffffffffffffffffffffffffffffffff1673ffffffffffffffffffffffffffffffffffffffff1673ffffffffffffffffffffffffffffffffffffffff16815260200160018201548152602001600282015481526020016003820160009054906101000a900460ff1615151515815250508152602001906001019061144c565b505050509050600080600090505b82518110156115535761154483828151811061152957fe5b602002602001015160400151836124ae90919063ffffffff16565b91508080600101915050611511565b508092505050919050565b6000606060096000858152602001908152602001600020805480602002602001604051908101604052809291908181526020016000905b8282101561164c57838290600052602060002090600402016040518060800160405290816000820160009054906101000a900473ffffffffffffffffffffffffffffffffffffffff1673ffffffffffffffffffffffffffffffffffffffff1673ffffffffffffffffffffffffffffffffffffffff16815260200160018201548152602001600282015481526020016003820160009054906101000a900460ff16151515158152505081526020019060010190611595565b50505050905060008090505b81518110156116e7578373ffffffffffffffffffffffffffffffffffffffff1682828151811061168457fe5b60200260200101516000015173ffffffffffffffffffffffffffffffffffffffff161480156116ca575060008282815181106116bc57fe5b602002602001015160400151115b156116da576001925050506116ee565b8080600101915050611658565b5060009150505b92915050565b60008090505b60075481101561171a5761170d816111c5565b80806001019150506116fa565b50565b600073ffffffffffffffffffffffffffffffffffffffff163373ffffffffffffffffffffffffffffffffffffffff16141561175757600080fd5b6000811161176457600080fd5b600c60003373ffffffffffffffffffffffffffffffffffffffff1673ffffffffffffffffffffffffffffffffffffffff16815260200190815260200160002060009054906101000a900460ff166117ba57600080fd5b600061180e82600f60003373ffffffffffffffffffffffffffffffffffffffff1673ffffffffffffffffffffffffffffffffffffffff168152602001908152602001600020546124ae90919063ffffffff16565b9050600061188e600d60003373ffffffffffffffffffffffffffffffffffffffff1673ffffffffffffffffffffffffffffffffffffffff1681526020019081526020016000205461188060643073ffffffffffffffffffffffffffffffffffffffff163161279990919063ffffffff16565b61271390919063ffffffff16565b90508181101561189d57600080fd5b81600e60003373ffffffffffffffffffffffffffffffffffffffff1673ffffffffffffffffffffffffffffffffffffffff1681526020019081526020016000205410156118e957600080fd5b3373ffffffffffffffffffffffffffffffffffffffff166108fc849081150290604051600060405180830381858888f1935050505015801561192f573d6000803e3d6000fd5b5081600f60003373ffffffffffffffffffffffffffffffffffffffff1673ffffffffffffffffffffffffffffffffffffffff16815260200190815260200160002081905550505050565b6000600454905090565b61198b612097565b6119fd576040517f08c379a00000000000000000000000000000000000000000000000000000000081526004018080602001828103825260208152602001807f4f776e61626c653a2063616c6c6572206973206e6f7420746865206f776e657281525060200191505060405180910390fd5b600073ffffffffffffffffffffffffffffffffffffffff168473ffffffffffffffffffffffffffffffffffffffff161415611a3757600080fd5b60008311611a4457600080fd5b60658310611a5157600080fd5b80600c60008673ffffffffffffffffffffffffffffffffffffffff1673ffffffffffffffffffffffffffffffffffffffff16815260200190815260200160002060006101000a81548160ff02191690831515021790555082600d60008673ffffffffffffffffffffffffffffffffffffffff1673ffffffffffffffffffffffffffffffffffffffff1681526020019081526020016000208190555081600e60008673ffffffffffffffffffffffffffffffffffffffff1673ffffffffffffffffffffffffffffffffffffffff1681526020019081526020016000208190555050505050565b611b3e612097565b611bb0576040517f08c379a00000000000000000000000000000000000000000000000000000000081526004018080602001828103825260208152602001807f4f776e61626c653a2063616c6c6572206973206e6f7420746865206f776e657281525060200191505060405180910390fd5b600073ffffffffffffffffffffffffffffffffffffffff166000809054906101000a900473ffffffffffffffffffffffffffffffffffffffff1673ffffffffffffffffffffffffffffffffffffffff167f8be0079c531659141344cd1fd0a4f28419497f9722a3daafe3b4186f6b6457e060405160405180910390a360008060006101000a81548173ffffffffffffffffffffffffffffffffffffffff021916908373ffffffffffffffffffffffffffffffffffffffff160217905550565b611c77612097565b611ce9576040517f08c379a00000000000000000000000000000000000000000000000000000000081526004018080602001828103825260208152602001807f4f776e61626c653a2063616c6c6572206973206e6f7420746865206f776e657281525060200191505060405180910390fd5b600073ffffffffffffffffffffffffffffffffffffffff168273ffffffffffffffffffffffffffffffffffffffff161415611d2357600080fd5b6000600c60008473ffffffffffffffffffffffffffffffffffffffff1673ffffffffffffffffffffffffffffffffffffffff16815260200190815260200160002060006101000a81548160ff021916908315150217905550600b8181548110611d8857fe5b9060005260206000200160006101000a81549073ffffffffffffffffffffffffffffffffffffffff02191690555050565b611dc1612097565b611e33576040517f08c379a00000000000000000000000000000000000000000000000000000000081526004018080602001828103825260208152602001807f4f776e61626c653a2063616c6c6572206973206e6f7420746865206f776e657281525060200191505060405180910390fd5b600073ffffffffffffffffffffffffffffffffffffffff168373ffffffffffffffffffffffffffffffffffffffff161415611e6d57600080fd5b600c60008473ffffffffffffffffffffffffffffffffffffffff1673ffffffffffffffffffffffffffffffffffffffff16815260200190815260200160002060009054906101000a900460ff1615611ec457600080fd5b60008211611ed157600080fd5b60658210611ede57600080fd5b6001600c60008573ffffffffffffffffffffffffffffffffffffffff1673ffffffffffffffffffffffffffffffffffffffff16815260200190815260200160002060006101000a81548160ff02191690831515021790555081600d60008573ffffffffffffffffffffffffffffffffffffffff1673ffffffffffffffffffffffffffffffffffffffff1681526020019081526020016000208190555080600e60008573ffffffffffffffffffffffffffffffffffffffff1673ffffffffffffffffffffffffffffffffffffffff168152602001908152602001600020819055506000600f60008573ffffffffffffffffffffffffffffffffffffffff1673ffffffffffffffffffffffffffffffffffffffff16815260200190815260200160002081905550600b8390806001815401808255809150509060018203906000526020600020016000909192909190916101000a81548173ffffffffffffffffffffffffffffffffffffffff021916908373ffffffffffffffffffffffffffffffffffffffff16021790555050505050565b60008060009054906101000a900473ffffffffffffffffffffffffffffffffffffffff16905090565b60008060009054906101000a900473ffffffffffffffffffffffffffffffffffffffff1673ffffffffffffffffffffffffffffffffffffffff166120d9612cce565b73ffffffffffffffffffffffffffffffffffffffff1614905090565b600f6020528060005260406000206000915090505481565b60008290505b81811161213057612123816111c5565b8080600101915050612113565b505050565b61213d612097565b6121af576040517f08c379a00000000000000000000000000000000000000000000000000000000081526004018080602001828103825260208152602001807f4f776e61626c653a2063616c6c6572206973206e6f7420746865206f776e657281525060200191505060405180910390fd5b600081116121bc57600080fd5b8060088190555050565b600060096000838152602001908152602001600020805490509050919050565b6121ee612097565b612260576040517f08c379a00000000000000000000000000000000000000000000000000000000081526004018080602001828103825260208152602001807f4f776e61626c653a2063616c6c6572206973206e6f7420746865206f776e657281525060200191505060405180910390fd5b61226981612cd6565b50565b606060096000858152602001908152602001600020805480602002602001604051908101604052809291908181526020016000905b8282101561235857838290600052602060002090600402016040518060800160405290816000820160009054906101000a900473ffffffffffffffffffffffffffffffffffffffff1673ffffffffffffffffffffffffffffffffffffffff1673ffffffffffffffffffffffffffffffffffffffff16815260200160018201548152602001600282015481526020016003820160009054906101000a900460ff161515151581525050815260200190600101906122a1565b50505050905060008090505b8151811015612423578373ffffffffffffffffffffffffffffffffffffffff1682828151811061239057fe5b60200260200101516000015173ffffffffffffffffffffffffffffffffffffffff161415612416576123e2838383815181106123c857fe5b6020026020010151604001516124ae90919063ffffffff16565b60096000878152602001908152602001600020828154811061240057fe5b9060005260206000209060040201600201819055505b8080600101915050612364565b5050505050565b61244060016007546124ae90919063ffffffff16565b60078190555061245b600854826124ae90919063ffffffff16565b6004819055506124a5612494600a612486670de0b6b3a764000060055461271390919063ffffffff16565b61279990919063ffffffff16565b600a546124ae90919063ffffffff16565b600a8190555050565b60008082840190508381101561252c576040517f08c379a000000000000000000000000000000000000000000000000000000000815260040180806020018281038252601b8152602001807f536166654d6174683a206164646974696f6e206f766572666c6f77000000000081525060200191505060405180910390fd5b8091505092915050565b600061257883836040518060400160405280601e81526020017f536166654d6174683a207375627472616374696f6e206f766572666c6f770000815250612e1a565b905092915050565b6000606060096000858152602001908152602001600020805480602002602001604051908101604052809291908181526020016000905b8282101561266e57838290600052602060002090600402016040518060800160405290816000820160009054906101000a900473ffffffffffffffffffffffffffffffffffffffff1673ffffffffffffffffffffffffffffffffffffffff1673ffffffffffffffffffffffffffffffffffffffff16815260200160018201548152602001600282015481526020016003820160009054906101000a900460ff161515151581525050815260200190600101906125b7565b50505050905060008090505b8151811015612706578373ffffffffffffffffffffffffffffffffffffffff168282815181106126a657fe5b60200260200101516000015173ffffffffffffffffffffffffffffffffffffffff161480156126e957508181815181106126dc57fe5b6020026020010151606001515b156126f95760019250505061270d565b808060010191505061267a565b5060009150505b92915050565b6000808314156127265760009050612793565b600082840290508284828161273757fe5b041461278e576040517f08c379a0000000000000000000000000000000000000000000000000000000008152600401808060200182810382526021815260200180612fc76021913960400191505060405180910390fd5b809150505b92915050565b60006127db83836040518060400160405280601a81526020017f536166654d6174683a206469766973696f6e206279207a65726f000000000000815250612eda565b905092915050565b6000606060096000858152602001908152602001600020805480602002602001604051908101604052809291908181526020016000905b828210156128d157838290600052602060002090600402016040518060800160405290816000820160009054906101000a900473ffffffffffffffffffffffffffffffffffffffff1673ffffffffffffffffffffffffffffffffffffffff1673ffffffffffffffffffffffffffffffffffffffff16815260200160018201548152602001600282015481526020016003820160009054906101000a900460ff1615151515815250508152602001906001019061281a565b50505050905060008090505b815181101561295f578373ffffffffffffffffffffffffffffffffffffffff1682828151811061290957fe5b60200260200101516000015173ffffffffffffffffffffffffffffffffffffffff1614156129525781818151811061293d57fe5b60200260200101516040015192505050612962565b80806001019150506128dd565b50505b92915050565b606060096000858152602001908152602001600020805480602002602001604051908101604052809291908181526020016000905b82821015612a5457838290600052602060002090600402016040518060800160405290816000820160009054906101000a900473ffffffffffffffffffffffffffffffffffffffff1673ffffffffffffffffffffffffffffffffffffffff1673ffffffffffffffffffffffffffffffffffffffff16815260200160018201548152602001600282015481526020016003820160009054906101000a900460ff1615151515815250508152602001906001019061299d565b50505050905060008090505b8151811015612b1f578373ffffffffffffffffffffffffffffffffffffffff16828281518110612a8c57fe5b60200260200101516000015173ffffffffffffffffffffffffffffffffffffffff161415612b1257612ade83838381518110612ac457fe5b6020026020010151602001516124ae90919063ffffffff16565b600960008781526020019081526020016000208281548110612afc57fe5b9060005260206000209060040201600101819055505b8080600101915050612a60565b5050505050565b606060096000858152602001908152602001600020805480602002602001604051908101604052809291908181526020016000905b82821015612c1257838290600052602060002090600402016040518060800160405290816000820160009054906101000a900473ffffffffffffffffffffffffffffffffffffffff1673ffffffffffffffffffffffffffffffffffffffff1673ffffffffffffffffffffffffffffffffffffffff16815260200160018201548152602001600282015481526020016003820160009054906101000a900460ff16151515158152505081526020019060010190612b5b565b50505050905060008090505b8151811015612cc7578373ffffffffffffffffffffffffffffffffffffffff16828281518110612c4a57fe5b60200260200101516000015173ffffffffffffffffffffffffffffffffffffffff161415612cba5782600960008781526020019081526020016000208281548110612c9157fe5b906000526020600020906004020160030160006101000a81548160ff0219169083151502179055505b8080600101915050612c1e565b5050505050565b600033905090565b600073ffffffffffffffffffffffffffffffffffffffff168173ffffffffffffffffffffffffffffffffffffffff161415612d5c576040517f08c379a0000000000000000000000000000000000000000000000000000000008152600401808060200182810382526026815260200180612fa16026913960400191505060405180910390fd5b8073ffffffffffffffffffffffffffffffffffffffff166000809054906101000a900473ffffffffffffffffffffffffffffffffffffffff1673ffffffffffffffffffffffffffffffffffffffff167f8be0079c531659141344cd1fd0a4f28419497f9722a3daafe3b4186f6b6457e060405160405180910390a3806000806101000a81548173ffffffffffffffffffffffffffffffffffffffff021916908373ffffffffffffffffffffffffffffffffffffffff16021790555050565b6000838311158290612ec7576040517f08c379a00000000000000000000000000000000000000000000000000000000081526004018080602001828103825283818151815260200191508051906020019080838360005b83811015612e8c578082015181840152602081019050612e71565b50505050905090810190601f168015612eb95780820380516001836020036101000a031916815260200191505b509250505060405180910390fd5b5060008385039050809150509392505050565b60008083118290612f86576040517f08c379a00000000000000000000000000000000000000000000000000000000081526004018080602001828103825283818151815260200191508051906020019080838360005b83811015612f4b578082015181840152602081019050612f30565b50505050905090810190601f168015612f785780820380516001836020036101000a031916815260200191505b509250505060405180910390fd5b506000838581612f9257fe5b04905080915050939250505056fe4f776e61626c653a206e6577206f776e657220697320746865207a65726f2061646472657373536166654d6174683a206d756c7469706c69636174696f6e206f766572666c6f77a165627a7a723058208b9204155e901cf6a79b25f7323ec545e899b8d54378c08eb5f9af40642b63b80029",
  "source": "pragma solidity ^0.5.2;\n\nimport \"../node_modules/openzeppelin-solidity/contracts/math/SafeMath.sol\";\nimport \"../node_modules/openzeppelin-solidity/contracts/token/ERC20/IERC20.sol\";\nimport \"../node_modules/openzeppelin-solidity/contracts/token/ERC20/SafeERC20.sol\";\nimport \"../node_modules/openzeppelin-solidity/contracts/token/ERC20/ERC20Mintable.sol\";\nimport \"../node_modules/openzeppelin-solidity/contracts/ownership/Ownable.sol\";\n\ncontract MethaCrowdsale is Ownable {\n    using SafeMath for uint256;\n    using SafeERC20 for IERC20;\n\n    IERC20 private _token;\n    address private _wallet;\n    uint private _start_time_of_first_period;\n    uint256 private _start_time_of_next_period;\n    uint private _tokens_created_per_period;\n    uint256 private _wei_raised;\n    uint256 private _current_period;\n    uint256 private _init_period_duration;\n\n    constructor (IERC20 token, address wallet, uint start_time_of_first_period, uint tokens_created_per_period, uint256 init_period_duration) public {\n        _token = token;\n        _wallet = wallet;\n        _start_time_of_first_period = start_time_of_first_period;\n        _tokens_created_per_period = tokens_created_per_period;\n        _init_period_duration = init_period_duration;\n        _start_time_of_next_period = start_time_of_first_period.add(init_period_duration);\n        _current_period = 0;\n        wallets_authorized_to_claim[msg.sender] = true;\n    }\n\n    struct contributor_data_per_period {\n        address user_address;\n        uint256 token_balance;\n        uint256 wei_contribution;\n        bool claimed;\n    }\n\n    mapping ( uint => contributor_data_per_period[] ) public contributors_data_per_period;\n    \n    uint256 private _amount_tokens_to_claimed;\n    address[] public wallets_authorized_addresses;\n    mapping ( address => bool ) public wallets_authorized_to_claim;\n    mapping ( address => uint ) public wallets_authorized_percent;\n    mapping ( address => uint256 ) public wallets_authorized_total;\n    mapping ( address => uint256 ) public wallets_authorized_total_claimed;\n\n    function wei_raised_per_period(uint256 period_id) view public returns (uint256) {\n        contributor_data_per_period[] memory data = contributors_data_per_period[period_id];\n        uint256 _wei_raised_per_period;\n        for (uint i=0; i<data.length; i++) {\n            _wei_raised_per_period = _wei_raised_per_period.add(data[i].wei_contribution);\n        }\n        return _wei_raised_per_period;\n    }\n\n    function current_period() view external returns (uint256) {\n        return _current_period;\n    }\n\n    function wei_raised() view external returns (uint256) {\n        return _wei_raised;\n    }\n\n    function increment_period(uint256 _now) internal {\n        _current_period = _current_period.add(1);\n        _start_time_of_next_period = _now.add(_init_period_duration);\n        _amount_tokens_to_claimed = _amount_tokens_to_claimed.add(_tokens_created_per_period.mul(1e18).div(10));\n    }\n\n    function start_time_of_next_period() view external returns (uint256) {\n        return _start_time_of_next_period;\n    }\n\n    function contributors_length_per_period(uint period_id) view external returns (uint) {\n        return contributors_data_per_period[period_id].length;\n    }\n\n    function if_address_has_contributed_in(uint period_id, address user_address) view public returns (bool) {\n        contributor_data_per_period[] memory data = contributors_data_per_period[period_id];\n        for (uint i=0; i<data.length; i++) {\n            if(data[i].user_address == user_address && data[i].wei_contribution > 0) {\n                return true;\n            }\n        }\n        return false;\n    }\n\n    function has_claimed_for_period(uint period_id, address user_address) view internal returns (bool) {\n        contributor_data_per_period[] memory data = contributors_data_per_period[period_id];\n        for (uint i=0; i<data.length; i++) {\n            if(data[i].user_address == user_address && data[i].claimed) {\n                return true;\n            }\n        }\n        return false;\n    }\n\n    function set_wei_contribution(uint period_id, address user_address, uint256 wei_contribution) internal {\n        contributor_data_per_period[] memory data = contributors_data_per_period[period_id];\n        for (uint i=0; i<data.length; i++) {\n            if(data[i].user_address == user_address) {\n                contributors_data_per_period[period_id][i].wei_contribution = data[i].wei_contribution.add(wei_contribution);\n            }\n        }\n    }\n\n    function set_token_balance(uint period_id, address user_address, uint256 token_balance) internal {\n        contributor_data_per_period[] memory data = contributors_data_per_period[period_id];\n        for (uint i=0; i<data.length; i++) {\n            if(data[i].user_address == user_address) {\n                contributors_data_per_period[period_id][i].token_balance = data[i].token_balance.add(token_balance);\n            }\n        }\n    }\n\n    function set_claimed(uint period_id, address user_address, bool claimed) internal {\n        contributor_data_per_period[] memory data = contributors_data_per_period[period_id];\n        for (uint i=0; i<data.length; i++) {\n            if(data[i].user_address == user_address) {\n                contributors_data_per_period[period_id][i].claimed = claimed;\n            }\n        }\n    }\n\n    function set_new_period_duration(uint256 new_period_duration) public onlyOwner {\n        require(new_period_duration > 0);\n        _init_period_duration = new_period_duration;\n    }\n\n    function add_authorized_address(address _address, uint _percent, uint256 _total) public onlyOwner {\n        require(_address != address(0));\n        require(!wallets_authorized_to_claim[_address]);\n        require(_percent > 0);\n        require(_percent < 101);\n        wallets_authorized_to_claim[_address] = true;\n        wallets_authorized_percent[_address] = _percent;\n        wallets_authorized_total[_address] = _total;\n        wallets_authorized_total_claimed[_address] = 0;\n        wallets_authorized_addresses.push(_address);\n    }\n\n    function update_authorized_address(address _address, uint _percent, uint256 _total, bool _status) public onlyOwner {\n        require(_address != address(0));\n        require(_percent > 0);\n        require(_percent < 101);\n        wallets_authorized_to_claim[_address] = _status;\n        wallets_authorized_percent[_address] = _percent;\n        wallets_authorized_total[_address] = _total;\n    }\n\n    function get_wallets_authorized_count() public view returns(uint) {\n        return wallets_authorized_addresses.length;\n    }\n\n    function delete_authorized_address(address _address, uint _index) public onlyOwner {\n        require(_address != address(0));\n        wallets_authorized_to_claim[_address] = false;\n        delete wallets_authorized_addresses[_index];\n    }\n\n    function get_wei_wei_contribution_per_period(uint256 period_id, address user_address) view internal returns (uint256) {\n        contributor_data_per_period[] memory data = contributors_data_per_period[period_id];\n        for (uint i=0; i<data.length; i++) {\n            if(data[i].user_address == user_address) {\n                return data[i].wei_contribution;\n            }\n        }\n    }\n\n    function get_contributor_data_per_period(uint256 period_id, address user_address) view external returns (address, uint256, uint256, bool) {\n        contributor_data_per_period[] memory data = contributors_data_per_period[period_id];\n        for (uint i=0; i<data.length; i++) {\n            if(data[i].user_address == user_address) {\n                return (data[i].user_address, data[i].token_balance, data[i].wei_contribution, data[i].claimed);\n            }\n        }\n    }\n\n    function () payable external {\n        buy();\n    }\n\n    function buy() payable public {\n        require(now >= _start_time_of_first_period);\n        require(msg.sender != address(0));\n        require(msg.value >= 0.01 ether);\n        uint _now = now;\n\n        if (if_address_has_contributed_in(_current_period, msg.sender) && _start_time_of_next_period > _now) {\n            set_wei_contribution(_current_period, msg.sender, msg.value);\n        }\n        else if (!if_address_has_contributed_in(_current_period, msg.sender) && _start_time_of_next_period > _now) {\n            contributors_data_per_period[_current_period].push(\n                contributor_data_per_period(msg.sender, 0, msg.value, false)\n            );\n        }\n        else {\n            increment_period(_now);\n            contributors_data_per_period[_current_period].push(\n                contributor_data_per_period(msg.sender, 0, msg.value, false)\n            );\n        }\n\n        _wei_raised = _wei_raised.add(msg.value);\n    }\n\n    function claim_period(uint256 period_id) public {\n        require(msg.sender != address(0));\n        uint256 _now = now;\n\n        if (_now > _start_time_of_next_period) {\n            increment_period(_now);\n        }\n\n        require(period_id < _current_period);\n\n        if (if_address_has_contributed_in(period_id, msg.sender) && !has_claimed_for_period(period_id, msg.sender)) {\n            uint256 _wei_raised_per_period = wei_raised_per_period(period_id);\n            uint256 tokensAmount = _tokens_created_per_period.mul(1e18);\n            uint256 tokensAmountDividedBy10 = tokensAmount.div(10);\n            tokensAmount = tokensAmount.sub(tokensAmountDividedBy10);\n            uint256 wei_contribution = get_wei_wei_contribution_per_period(period_id, msg.sender);\n            uint256 token_balance = wei_contribution.mul(tokensAmount).div(_wei_raised_per_period);\n            require(ERC20Mintable(address(_token)).mint(msg.sender, token_balance));\n            set_token_balance(period_id, msg.sender, 10);\n            set_claimed(period_id, msg.sender, true);\n        }\n    }\n\n    function claim_all() public {\n        for(uint i=0; i<_current_period; i++) {\n            claim_period(i);\n        }\n    }\n\n    function claim_range(uint from, uint to) public {\n        for(uint i=from; i<=to; i++) {\n            claim_period(i);\n        }\n    }\n\n    function claim_authorized_address(uint256 amount) onlyOwner public {\n        require(msg.sender != address(0));\n        //require(_wallets_authorized_to_claim[msg.sender]);\n        require(_amount_tokens_to_claimed >= amount);\n        _amount_tokens_to_claimed = _amount_tokens_to_claimed.sub(amount);\n        require(ERC20Mintable(address(_token)).mint(msg.sender, amount));\n    }\n\n    function claim_eth_authorized_address(uint256 amount) public {\n        require(msg.sender != address(0));\n        require(amount > 0);\n        require(wallets_authorized_to_claim[msg.sender]);\n        uint256 new_balance_of_wallet = wallets_authorized_total_claimed[msg.sender].add(amount);\n        uint256 authorized_amount = address(this).balance.div(100).mul(wallets_authorized_percent[msg.sender]);\n        require(authorized_amount >= new_balance_of_wallet);\n        require(wallets_authorized_total[msg.sender]  >= new_balance_of_wallet);\n        msg.sender.transfer(amount);\n        wallets_authorized_total_claimed[msg.sender] = new_balance_of_wallet;\n    }\n}",
  "sourcePath": "C:/Users/Administrador/Desktop/TokenSale/contracts/MethaCrowdsale.sol",
  "compiler": {
    "name": "solc",
    "version": "0.5.7+commit.6da8b019.Emscripten.clang"
  },
  "schemaVersion": "3.0.19",
  "updatedAt": "2019-11-22T15:21:55.832Z",
  "networkType": "ethereum",
  "devdoc": {
    "methods": {
      "isOwner()": {
        "details": "Returns true if the caller is the current owner."
      },
      "owner()": {
        "details": "Returns the address of the current owner."
      },
      "renounceOwnership()": {
        "details": "Leaves the contract without owner. It will not be possible to call `onlyOwner` functions anymore. Can only be called by the current owner.     * NOTE: Renouncing ownership will leave the contract without an owner, thereby removing any functionality that is only available to the owner."
      },
      "transferOwnership(address)": {
        "details": "Transfers ownership of the contract to a new account (`newOwner`). Can only be called by the current owner."
      }
    }
  },
  "userdoc": {
    "methods": {}
  }
}